:100000000C9462000C948A000C948A000C948A0070
:100010000C948A000C948A000C948A000C948A0038
:100020000C948A000C948A000C948A000C948A0028
:100030000C948A000C948A000C948A000C948A0018
:100040000C946E070C948A000C943C070C941607D1
:100050000C948A000C948A000C948A000C948A00F8
:100060000C948A000C948A000000000023002600F3
:10007000290000000000240027002A0000000000E2
:10008000250028002B0004040404040404040202D4
:100090000202020203030303030301020408102007
:1000A0004080010204081020010204081020000012
:1000B0000008000201000003040700000000000027
:1000C0000000B80711241FBECFEFD8E0DEBFCDBFC0
:1000D00011E0A0E0B1E0ECE0F5E102C005900D9286
:1000E000AC39B107D9F722E0ACE9B1E001C01D920B
:1000F000A435B207E1F710E0C2E6D0E004C02197D2
:10010000FE010E94790AC136D107C9F70E9406088C
:100110000C94840A0C940000AF92BF92CF92DF92AD
:10012000EF92FF920F931F93CF93DF936C017B01AC
:100130008B01040F151FEB015E01AE18BF08C0173D
:10014000D10759F06991D601ED91FC910190F081B0
:10015000E02DC6010995892B79F7C501DF91CF9173
:100160001F910F91FF90EF90DF90CF90BF90AF90D5
:100170000895FC01538D448D252F30E0842F90E0AD
:10018000821B930B541710F0CF9608950197089592
:10019000FC01918D828D981761F0A28DAE0FBF2F5B
:1001A000B11D5D968C91928D9F5F9F73928F90E0B1
:1001B00008958FEF9FEF0895FC01918D828D981720
:1001C00031F0828DE80FF11D858D90E008958FEF5D
:1001D0009FEF0895FC01918D228D892F90E0805C26
:1001E0009F4F821B91098F73992708958DEA91E0A3
:1001F0000E94EA0021E0892B09F420E0822F089573
:1002000080E090E0892B29F00E94F60081110C9487
:1002100000000895FC01A48DA80FB92FB11DA35AA9
:10022000BF4F2C91848D90E001968F739927848F16
:10023000A689B7892C93A089B1898C918370806439
:100240008C93938D848D981306C00288F389E02DDA
:1002500080818F7D80830895EF92FF920F931F938B
:10026000CF93DF93EC0181E0888F9B8D8C8D981369
:100270001AC0E889F989808185FF15C09FB7F89475
:10028000EE89FF896083E889F989808183708064C1
:1002900080839FBF81E090E0DF91CF911F910F910C
:1002A000FF90EF900895F62E0B8D10E00F5F1F4F1B
:1002B0000F731127E02E8C8D8E110CC00FB607FC2A
:1002C000FACFE889F989808185FFF5CFCE010E94B8
:1002D0000A01F1CFEB8DEC0FFD2FF11DE35AFF4F1B
:1002E000F0829FB7F8940B8FEA89FB898081806246
:1002F000CFCFCF93DF93EC01888D8823B9F0AA8903
:10030000BB89E889F9898C9185FD03C0808186FDD0
:100310000DC00FB607FCF7CF8C9185FFF2CF80811F
:1003200085FFEDCFCE010E940A01E9CFDF91CF9189
:10033000089590E0FC01E255FF4F2491FC01E65640
:10034000FF4F3491FC01EA57FF4FE491EE23C9F0CF
:10035000222339F0233001F1A8F4213019F12230A1
:1003600029F1F0E0EE0FFF1FE458FF4FA591B49183
:100370008FB7F894EC91611126C030953E233C93E1
:100380008FBF08952730A9F02830C9F0243049F7ED
:10039000809180008F7D03C0809180008F77809353
:1003A0008000DFCF84B58F7784BDDBCF84B58F7DB0
:1003B000FBCF8091B0008F778093B000D2CF809137
:1003C000B0008F7DF9CF3E2BDACFCF93DF9390E053
:1003D000FC01E656FF4F24918A579F4FFC01849100
:1003E0008823D1F090E0880F991FFC01EE58FF4F51
:1003F000A591B491FC01E458FF4FC591D4916111CE
:100400000EC09FB7F8948C91E22FE0958E238C93C9
:100410002881E223E8839FBFDF91CF9108958FB7B2
:10042000F894EC91E22BEC938FBFF6CF3FB7F894A2
:100430008091A1019091A201A091A301B091A4018A
:1004400026B5A89B05C02F3F19F00196A11DB11D2F
:100450003FBFBA2FA92F982F8827BC01CD01620F6B
:10046000711D811D911D42E0660F771F881F991F26
:100470004A95D1F708958F929F92AF92BF92CF92F3
:10048000DF92EF92FF926B017C010E9416024B01FA
:100490005C01C114D104E104F104B9F00E94160218
:1004A000681979098A099B09683E7340810591059D
:1004B00080F321E0C21AD108E108F10888EE880E25
:1004C00083E0981EA11CB11CE4CFFF90EF90DF9059
:1004D000CF90BF90AF909F908F9008956F927F9232
:1004E0008F929F92AF92BF92CF92DF92EF92FF9244
:1004F0000F931F93CF93DF93CDB7DEB7AC970FB6B3
:10050000F894DEBF0FBECDBFDC011696ED91FC91D5
:10051000319609F480C059013A016B018C01FE014A
:1005200031964F0188E2DF011D928A95E9F7D801E3
:10053000ED91FC910484F585E02DB401C801099585
:100540007C01892B09F051C01AA619A61CA61BA66E
:10055000D801ED91FC910684F785E02D9E01255D83
:100560003F4FAE01475D5F4FB401C80109957C0163
:10057000892BD9F5A114B10439F088E2F401D50131
:1005800001900D928A95E1F709A51AA5C114D1042D
:1005900079F0612F772767FD7A95072E000C880B7D
:1005A000990B0E94E709F60160837183828393832C
:1005B0006114710489F08CA5682F782F770F770B61
:1005C000072E000C880B990B0E94E709D3016D934D
:1005D0007D938D939C931397012B39F48BA59CA548
:1005E000892B19F496E1E92EF12CC701AC960FB6D0
:1005F000F894DEBF0FBECDBFDF91CF911F910F9159
:10060000FF90EF90DF90CF90BF90AF909F908F9032
:100610007F906F90089587E1E82EF12CE6CF8F92BE
:100620009F92AF92BF92CF92DF92EF92FF920F9381
:100630001F93CF93DF93EC018B016A017901E8816D
:10064000F9810284F385E02D0995B82EB801685F21
:100650007F4FE881F9810284F385E02DCE01099571
:10066000982EB801605F7F4FE881F9810284F3859D
:10067000E02DCE010995A82EB801685E7F4FE88174
:10068000F9810284F385E02DCE010995882EB80109
:10069000605E7F4FE881F9810284F385E02DCE0111
:1006A00009959B2D990D9A0D980D891319C09A2DB6
:1006B000882DF601918380839B2D892DF7019183ED
:1006C000808390E080E0DF91CF911F910F91FF90A8
:1006D000EF90DF90CF90BF90AF909F908F90089554
:1006E00085E190E0F0CF47E050E080E0FB01219110
:1006F000BF01042E01C0220F0A94EAF7820F415075
:100700005109A0F708953F924F925F926F927F92A6
:100710008F929F92AF92BF92CF92DF92EF92FF9211
:100720000F931F93CF93DF93EC01162F7A0169018A
:100730000E9416024B015C01312C111138843601E4
:10074000660C771C660C771C85E0681A7108270117
:10075000440C551C440C551C85E0481A510810E007
:1007600000E060E070E0CB012A813B814C815D813B
:1007700026173707480759070CF10115110599F598
:1007800082E0E816F1041CF0C2010197F1F70E9423
:100790001602681979098A099B09E985F0E0EE0FCC
:1007A000FF1FE859FF4FA591B4912C910F5F1F4F88
:1007B00038852323231105C097FFD6CF6FEF7FEF36
:1007C000CB01DF91CF911F910F91FF90EF90DF90C0
:1007D000CF90BF90AF909F908F907F906F905F90E1
:1007E0004F903F90089582E0C816D10484F2C3016F
:1007F000CCCFDC0117967C936E931697FB01E656DF
:10080000FF4FE4911896EC9318976A577F4FFB01BE
:10081000649119966C930895CF92DF92EF92FF92B4
:100820000F931F93CF93DF93EC017A0169010E942C
:10083000F903E881F9810480F581E02D9801A60192
:10084000B701CE01DF91CF911F910F91FF90EF90F3
:10085000DF90CF900994CF92DF92EF92FF920F93A7
:100860001F93CF93DF93EC017A0169010E94F90392
:10087000E881F9810190F081E02D9801A601B7018E
:10088000CE01DF91CF911F910F91FF90EF90DF90FC
:10089000CF900994CF92DF92EF92FF920F931F9324
:1008A000CF93DF93CDB7DEB728970FB6F894DEBFAE
:1008B0000FBECDBFDC011696ED91FC91319609F487
:1008C00040C08A017B0119821A821B821C821D8210
:1008D0001E821F821886DC01ED91FC910480F58157
:1008E000E02DAE014B5F5F4FBE016F5F7F4F0995FB
:1008F0006C01892BB1F4E114F10441F069817A8132
:100900008B819C810E94AF09F7016083011511055D
:1009100041F06D817E818F8198850E94AF09D80159
:100920006C93C60128960FB6F894DEBF0FBECDBFFC
:10093000DF91CF911F910F91FF90EF90DF90CF90BB
:10094000089587E1C82ED12CECCFCF93DF93EC0133
:100950006230710509F43AC02CF46130710581F1FF
:1009600060E02FC06330710509F43AC0643071054E
:10097000B9F760E089E00E94990160E08AE00E9496
:10098000990160E08CE00E94990161E08DE00E9495
:100990009901CE30D10508F04DC0FE01EE52FB4F5B
:1009A0000C94790AFE04230539054B05650573058A
:1009B00089059B059D05A305A905B305B905C705CF
:1009C00061E089E00E94990160E005C060E089E093
:1009D0000E94990161E08AE00E94990160E009C0EB
:1009E00060E089E00E94990160E08AE00E9499013C
:1009F00061E08CE00E94990160E0C8CF60E082E095
:100A00000E94990160E083E00E94990160E084E027
:100A10000E94990160E085E00E94990160E086E013
:100A20000E94990160E087E00E94990161E088E0FE
:100A30000E949901A89561E070E080E090E0DF916C
:100A4000CF910C943B0261E082E00E94990160E04A
:100A500083E00E94990160E084E00E94990161E0D6
:100A600085E00E94990161E086E00E94990161E0C1
:100A7000DACF60E082E00E94990160E083E00E94AA
:100A8000990161E084E00E94990160E085E00E94A4
:100A9000990160E011C060E082E00E94990160E08D
:100AA00083E00E94990160E084E00E94990160E087
:100AB00085E00E94990161E086E00E94990161E071
:100AC00087E00E94990160E0B2CF61E082E00E947D
:100AD000990160E083E00E94990160E084E00E9457
:100AE000990161E00DC060E082E00E94990161E03F
:100AF00083E00E94990160E084E00E94990160E037
:100B000085E00E94990161E086E00E94990160E021
:100B1000D7CF60E082E00E94990161E083E00E940B
:100B2000990160E084E00E94990160E085E00E9404
:100B3000990160E0E9CF60E087CF60E082E00E9449
:100B4000990160E0EBCF60E082E00E94990160E0F3
:100B5000CFCF60E082E00E94990160E083E00E94D4
:100B6000990161E0BBCF61E082E00E94990161E000
:100B700085CF61E082E00E94990161E083E00E94FC
:100B8000990161E084E00E94990161E07FCF61E01A
:100B900082E00E94990161E083E00E94990160E097
:100BA00084E00E94990161E0C1CFFC010190002026
:100BB000E9F73197AF01481B590BBC018DEA91E071
:100BC0000C948C008F929F92AF92BF920F931F93C1
:100BD000CF93DF93CDB7DEB7A1970FB6F894DEBF02
:100BE0000FBECDBF19A2423008F44AE08E010F5D5E
:100BF0001F4F842E912CB12CA12CA50194010E9491
:100C0000570AE62FB901CA01EA30F4F4E05DD801D1
:100C1000EE938D01232B242B252B79F790E080E098
:100C2000109719F0CD010E94D505A1960FB6F89442
:100C3000DEBF0FBECDBFDF91CF911F910F91BF904F
:100C4000AF909F908F900895E95CE1CFCF92DF92B3
:100C5000EF92FF92CF93DF936B017C016DE28DEAFF
:100C600091E00E942C01EC0166277727CB016C19DB
:100C70007D098E099F094AE00E94E2058C0F9D1FA5
:100C8000DF91CF91FF90EF90DF90CF900895CF93B9
:100C9000DF930E94D505EC018AE391E00E94D5051F
:100CA0008C0F9D1FDF91CF910895BC01990F880B88
:100CB000990B97FD0C9426064AE00C94E2050E94DD
:100CC0007F0AEF92FF920F931F93CF93DF93EC0174
:100CD0008B0188E2FB0111928A95E9F761E08E8130
:100CE0000E94E50160E08E810E94990164E170E05C
:100CF00080E090E00E943B0261E08E810E949901B9
:100D000060E08E810E94E5018FE590E00197F1F7A8
:100D1000E881F9810084F185E02D26E030E04AE0A9
:100D200050E060E0CE0109956E31710581059105B5
:100D30006CF4982F872F762F66276061CB01DF91A7
:100D4000CF911F910F91FF90EF900895E881F98165
:100D50000084F185E02D26E030E04AE050E061E0DB
:100D6000CE0109957801F8E2EF0EF11C62337105AE
:100D70008105910534F4982F872F762F66276161BE
:100D8000DDCFE881F9810084F185E02D26E030E0B7
:100D90004AE050E060E0CE010995683171058105B7
:100DA000910534F4982F872F762F66276261C6CF7E
:100DB000E881F9810084F185E02D26E030E04AE009
:100DC00050E061E0CE0109956B3071058105910518
:100DD00034F4982F872F762F66276361AFCF21E0F9
:100DE00069327105810591050CF420E0F801219329
:100DF0008F01EE16FF0629F6E881F9810084F1855E
:100E0000E02D26E030E04AE050E060E0CE010995B8
:100E1000683171058105910534F4982F872F762F5D
:100E2000662764618BCF70E060E088CF1F920F92DD
:100E30000FB60F9211242F933F934F935F936F93AD
:100E40007F938F939F93AF93BF93EF93FF938DEA1D
:100E500091E00E940A01FF91EF91BF91AF919F91A4
:100E60008F917F916F915F914F913F912F910F9053
:100E70000FBE0F901F9018951F920F920FB60F92F2
:100E800011242F938F939F93EF93FF93E091BD01D4
:100E9000F091BE018081E091C301F091C40182FD17
:100EA0001BC090818091C6018F5F8F732091C70115
:100EB000821741F0E091C601F0E0E355FE4F958FB7
:100EC0008093C601FF91EF919F918F912F910F9089
:100ED0000FBE0F901F9018958081F4CF1F920F9234
:100EE0000FB60F9211242F933F938F939F93AF933D
:100EF000BF9380919D0190919E01A0919F01B0911F
:100F0000A00130919C0123E0230F2D3758F5019665
:100F1000A11DB11D20939C0180939D0190939E0182
:100F2000A0939F01B093A0018091A1019091A20193
:100F3000A091A301B091A4010196A11DB11D8093C0
:100F4000A1019093A201A093A301B093A401BF912A
:100F5000AF919F918F913F912F910F900FBE0F9066
:100F60001F90189526E8230F0296A11DB11DD2CF20
:100F7000CF93DF93EDEAF1E01382128288EE93E0E3
:100F8000A0E0B0E084839583A683B78384E091E0FA
:100F90009183808385EC90E09587848784EC90E052
:100FA0009787868780EC90E0918B808B81EC90E036
:100FB000938B828B82EC90E0958B848B86EC90E017
:100FC000978B868B118E128E138E148ECAE4D2E00C
:100FD00086E191E09983888380E49BE4ACE4B0E00F
:100FE0008A839B83AC83BD838FEF9FEF9F838E8328
:100FF000888789876BE070E0CE010E94F9038AE25E
:1010000091E099838883DF91CF910895CF93DF9307
:1010100000D0CDB7DEB7789484B5826084BD84B546
:10102000816084BD85B5826085BD85B5816085BDE3
:1010300080916E00816080936E001092810080919B
:101040008100826080938100809181008160809323
:101050008100809180008160809380008091B10048
:1010600084608093B1008091B00081608093B00073
:1010700080917A00846080937A0080917A00826007
:1010800080937A0080917A00816080937A008091C9
:101090007A00806880937A001092C100E091BD01CF
:1010A000F091BE0182E08083E091B901F091BA0134
:1010B0001082E091BB01F091BC0180E1808310922D
:1010C000C501E091C101F091C20186E08083E09109
:1010D000BF01F091C001808180618083E091BF01F8
:1010E000F091C001808188608083E091BF01F09120
:1010F000C001808180688083E091BF01F091C001D0
:1011000080818F7D808361E082E00E94E50161E063
:1011100083E00E94E50161E084E00E94E50161E076
:1011200085E00E94E50161E086E00E94E50161E062
:1011300087E00E94E50161E088E00E94E50161E04E
:1011400089E00E94E50161E08AE00E94E50161E03A
:101150008CE00E94E50161E08DE00E94E50188E1FC
:101160009EE00FB6F894A895809360000FBE909310
:1011700060004AE0542E50E0652E50E0752E8DE35D
:1011800091E00E9447068FE591E00E9447061A828F
:10119000198230E020E0AE014F5F5F4FBE016E5F0D
:1011A0007F4F8AE492E00E944A048C01892B21F14E
:1011B0008FE691E00E94D505B801110F880B990BBD
:1011C00097FF16C00E9426068AE391E00E94D5058B
:1011D00068EE73E080E090E00E943B0261147104CD
:1011E00071F20E94F600882351F20E940000C7CFDE
:1011F0004AE00E94E205E8CF87E891E00E94D50529
:101200008A8190E00E94550683E991E00E94D5050D
:10121000898190E00E94550689E991E00E94470685
:10122000CA808C2D652D0E944B0AA82EB12CB0923D
:10123000AC01A092AB0146EF95014203C001439F70
:10124000900D1124C80ED92ED11CD092AA01C092A3
:10125000A9010981802F0E944B0AE82EF12CF092FF
:10126000A801E092A70197014203C001439F900D9E
:101270001124080F192F111D1093A6010093A50129
:101280003CED832E35E0932E61E070E0C5010E94B5
:10129000A50462E070E0C6010E94A50481E0881AFE
:1012A000910891F72CEDC22E25E0D22E61E070E07E
:1012B0008AE090E00E94A50462E070E08BE090E09C
:1012C0000E94A50421E0C21AD10881F794EFC92E2B
:1012D000DD24D39463E670E083E690E00E94A504E9
:1012E00063E670E083E690E00E94A50431E0C31A53
:1012F000D10881F78CEDC82E85E0D82E61E070E032
:10130000C7010E94A50462E070E0C8010E94A50424
:1013100041E0C41AD10891F70CED15E061E070E0EE
:101320008CE090E00E94A50462E070E08DE090E027
:101330000E94A5040150110989F704EF11E063E64A
:1013400070E083E690E00E94A50463E670E08EED15
:1013500093E00E94A5040150110989F73FCF0E9434
:10136000B6096894B1110C94450A08950E942A0A9E
:1013700088F09F5798F0B92F9927B751B0F0E1F056
:10138000660F771F881F991F1AF0BA95C9F714C006
:10139000B13091F00E94440AB1E008950C94440ADF
:1013A000672F782F8827B85F39F0B93FCCF386953F
:1013B00077956795B395D9F73EF49095809570959C
:1013C00061957F4F8F4F9F4F0895E89409C097FB19
:1013D0003EF490958095709561957F4F8F4F9F4F0C
:1013E0009923A9F0F92F96E9BB279395F695879550
:1013F00077956795B795F111F8CFFAF4BB0F11F413
:1014000060FF1BC06F5F7F4F8F4F9F4F16C08823B9
:1014100011F096E911C0772321F09EE8872F762FEF
:1014200005C0662371F096E8862F70E060E02AF030
:101430009A95660F771F881FDAF7880F969587951C
:1014400097F9089557FD9058440F551F59F05F3F85
:1014500071F04795880F97FB991F61F09F3F79F0D6
:1014600087950895121613061406551FF2CF469558
:10147000F1DF08C0161617061806991FF1CF8695DA
:101480007105610508940895E894BB2766277727BE
:10149000CB0197F90895991B79E004C0991F96171D
:1014A00008F0961B881F7A95C9F780950895A1E2E8
:1014B0001A2EAA1BBB1BFD010DC0AA1FBB1FEE1FCE
:1014C000FF1FA217B307E407F50720F0A21BB30B19
:1014D000E40BF50B661F771F881F991F1A9469F795
:1014E00060957095809590959B01AC01BD01CF01F1
:1014F0000895EE0FFF1F0590F491E02D099481E00F
:0C15000090E0F8940C94840AF894FFCF5B
:10150C00000000002C018C00B9007901EA00C80031
:10151C00DC00000000004A042B045F065F06830316
:10152C0073035F060F03000000004A042B046E02D5
:10153C000C048303730361060F030D0A003D3D3D4C
:10154C003D3D3D3D3D3D3D3D3D3D3D3D3D3D3D3DBF
:10155C003D3D3D3D3D3D3D3D3D3D3D3D3D3D0053D6
:10156C00616D706C652044485431312E2E2E005222
:10157C00656164204448543131206661696C65644E
:10158C002C206572723D0053616D706C65204F4B61
:0C159C003A2000202A432C2000204800A8
:00000001FF
